:020000040800F2
:10000000400D0020C9010008090B0008070A00087C
:10001000D10A000841060008A325000800000000DE
:10002000000000000000000000000000E5170008CC
:100030004506000800000000110F0008F91800082C
:10004000E3010008E3010008E3010008E301000800
:10005000E3010008E3010008E30100084906000885
:10006000E3010008E3010008E3010008E3010008E0
:10007000E3010008E3010008E3010008E3010008D0
:10008000E3010008E3010008E3010008E3010008C0
:10009000E3010008E3010008E3010008E3010008B0
:1000A000E3010008E3010008E3010008E3010008A0
:1000B000651C00087D1C0008711F0008E301000892
:1000C000E3010008E3010008E3010008E301000880
:1000D000E301000881230008E3010008E3010008B0
:1000E000E3010008E3010008E301000800F002F862
:1000F00000F05AF80AA090E8000C82448344AAF168
:100100000107DA4501D100F04FF8AFF2090EBAE865
:100110000F0013F0010F18BFFB1A43F0010318473B
:100120005C4800007C4800000A444FF0000C10F8C6
:10013000013B13F0070408BF10F8014B1D1108BF65
:1001400010F8015B641E05D010F8016B641E01F805
:10015000016BF9D113F0080F1EBF10F8014BAD1C55
:100160000C1B09D16D1E58BF01F801CBFAD505E073
:1001700014F8016B01F8016B6D1EF9D59142D6D3CD
:10018000704700000023002400250026103A28BFF5
:1001900078C1FBD8520728BF30C148BF0B607047F9
:1001A0001FB51FBD10B510BD00F0E0F81146FFF7F8
:1001B000F7FF03F03DF800F0FEF803B4FFF7F2FF9D
:1001C00003BC02F0B7FD000009488047094800471A
:1001D000FEE7FEE7FEE7FEE7FEE7FEE7FEE7FEE7F7
:1001E000FEE7FEE704480549054A064B7047000054
:1001F000FD180008ED00000840070020400D002019
:100200004009002040090020704710B5431C02E05F
:1002100010F8011B71B18107FAD14FF0013202C809
:100220008C1A8C4314EAC211F9D0C01A0A0603D002
:10023000C01E10BDC01A10BD0A0401D0801E10BD22
:100240000902FCD0401E10BD4FF000020429C0F08E
:10025000128010F0030C00F05F80CCF1040CBCF1B4
:10026000020F18BF00F8012BA8BF20F8022BA1EB4A
:100270000C0100F051B85FEAC17C24BF00F8012BEB
:1002800000F8012B48BF00F8012B70474FF0013CEC
:1002900050F8042B51F8043B9A4221D1A2EB0C03F5
:1002A000934313EACC1317D150F8042B51F8043BB5
:1002B0009A4215D1A2EB0C03934313EACC130BD152
:1002C00050F8042B51F8043B9A4209D1A2EB0C03DD
:1002D000934313EACC13DBD04FF00000704700BF0C
:1002E000D01A01BAB1FA81F101F0180122FA01F035
:1002F000CB40C1F12001DBB2C0B2C01A2CFA01F32D
:10030000D11A914311EAC311E6D170477047704783
:10031000704770474FF0000200B51346944696466A
:10032000203922BFA0E80C50A0E80C50B1F1200108
:10033000BFF4F7AF090728BFA0E80C5048BF0CC0B6
:100340005DF804EB890028BF40F8042B08BF704714
:1003500048BF20F8022B11F0804F18BF00F8012B86
:100360007047000000487047DC0600207546FFF724
:10037000F9FFAE4605006946534620F00700854662
:1003800018B020B5FFF72EFFBDE820404FF0000663
:100390004FF000074FF000084FF0000B21F007016D
:1003A000AC46ACE8C009ACE8C009ACE8C009ACE8B0
:1003B000C0098D46704710B50446AFF30080204653
:1003C000BDE81040FFF7F9BE21B1826842F001029A
:1003D000826003E0826822F00102826070470000C0
:1003E00010B504461248844208D10121401500F09E
:1003F000BDFD0021601500F0B9FD17E00D488442F5
:1004000008D10121001500F0B1FD0021201500F0F8
:10041000ADFD0BE00848844208D10121C80300F07B
:10042000A5FD00214FF4004000F0A0FD10BD00002C
:100430000024014000280140003C0140014600200A
:100440008A6802F004020AB1012000E0002070472F
:100450000146C86C80B270470246002013680B400A
:100460000BB1012000E000207047014600208A689F
:1004700002F008020AB1012000E0002070470000ED
:1004800030B502460020002350680F4C20400D7903
:100490000C6844EA05242043506090680B4C2040CF
:1004A000D1E902542C434D7944EA4504204390603D
:1004B000D06A20F470000C7C641EE4B2234340EA4E
:1004C0000350D06230BD0000FFFEF0FFFDF7F1FFEA
:1004D000F0B504460D4600200021092D11DDE0682D
:1004E000A5F10A0606EB4607072606FA07F1884338
:1004F000A5F10A0606EB460603FA06F10843E0609A
:100500000CE0206905EB4507072606FA07F188434A
:1005100005EB450603FA06F108432061072A0FDAC6
:10052000606B561E06EB86071F2606FA07F1884306
:10053000561E06EB860605FA06F10843606322E0C4
:100540000D2A0FDA206BD61F06EB86071F2606FA48
:1005500007F18843D61F06EB860605FA06F1084325
:10056000206310E0E06AA2F10D0606EB86071F2665
:1005700006FA07F18843A2F10D0606EB860605FA96
:1005800006F10843E062F0BD816841F00801816036
:10059000704721B1826842F4A002826003E0826861
:1005A00022F4A00282607047816841F004018160FA
:1005B0007047000000B587B001214FF4017000F0D2
:1005C000C5FC4FF4004000F0A5FC0C20ADF8040081
:1005D00000208DF8070001A9174800F00BF9174813
:1005E000FFF7FEFE002002908DF80C008DF80D0044
:1005F0004FF4602004900020059001208DF8180031
:1006000002A90E48FFF73CFF01210C48FFF7DCFE72
:100610000A48FFF7B9FF00BF0848FFF726FF002888
:10062000FAD10648FFF7C0FF00BF0448FFF706FFF6
:100630000028FAD107B000BD0008014000240140A5
:1006400000BFFEE77047000010B5022000F008F878
:1006500002480068401C0149086010BD1C000020D1
:1006600001490860704700001404014000B587B0DC
:100670000121042000F06AFC0121084600F056FC2C
:1006800028208DF81B000320ADF8180006A91E488D
:1006900000F0B0F803A801F069FE0020ADF81200E8
:1006A000ADF80E004FF6FF70ADF810000020ADF869
:1006B0000C0003A94FF0804001F006FE00231A460B
:1006C00003214FF0804001F08EFC684601F016FDDA
:1006D0000A20ADF808006946400701F0B9FC012185
:1006E000880701F05FFC01221146900701F00FFD21
:1006F00000214FF0804001F0B9FD0121880701F091
:1007000057FC07B000BD00000008014000B587B0ED
:100710000121082000F01AFC0121042000F006FC51
:1007200028208DF81B00C020ADF8180006A91C4831
:1007300000F060F803A801F019FE0020ADF81200E7
:10074000ADF80E004FF6FF70ADF810000020ADF8C8
:100750000C0003A9134801F0B7FD00231A4603213A
:10076000104801F040FC684601F0C8FC0A20ADF8D2
:10077000080069460B4801F06BFC0121094801F0B3
:1007800011FC01221146074801F0C1FC0021054877
:1007900001F06CFD0121034801F00AFC07B000BD27
:1007A000000C0140000800400B4840790A4A927949
:1007B000904201D10020704707484079064A115CF9
:1007C00010464079401CC0B25071052801DB002062
:1007D00050710846EFE70000FC00002004480021AB
:1007E0000160017100200249487188717047000062
:1007F000FC0000202DE9F0410246002500260020E3
:1008000000230024002791F803C00CF00F0591F895
:1008100003C00CF0100CBCF1000F03D091F802C023
:100820004CEA050591F800C0BCF1000F31D0146806
:1008300000202BE04FF0010C0CFA00F3B1F800C0DF
:100840000CEA03069E4220D183004FF00F0C0CFAF5
:1008500003F7BC4305FA03FC4CEA040491F803C017
:10086000BCF1280F06D14FF0010C0CFA00FCC2F8C5
:1008700014C00AE091F803C0BCF1480F05D14FF055
:10088000010C0CFA00FCC2F810C0401C0828D1D39F
:100890001460B1F800C0BCF1FF0F34DD54680020D3
:1008A0002EE000F1080C4FF0010808FA0CF3B1F843
:1008B00000C00CEA03069E4221D183004FF00F0CCA
:1008C0000CFA03F7BC4305FA03FC4CEA040491F864
:1008D00003C0BCF1280F05D100F1080C08FA0CF890
:1008E000C2F8148091F803C0BCF1480F07D100F1A1
:1008F000080C4FF0010808FA0CF8C2F81080401CF0
:100900000828CED35460BDE8F0810000F0B50A4657
:10091000002300240021002500F00046B6F1004F1E
:1009200002D11D4EF16901E01B4E7168C0F3034511
:1009300083B200F44016B6F5401F08D121F0706173
:10094000154E766826F07066134F7E6012E000F454
:100950008016B6F5801F06D1032606FA05F4A143DA
:1009600041F0706106E0460D360103FA06F6B14328
:1009700041F0706122B1460D360103FA06F63143AB
:1009800000F00046B6F1004F02D1034EF16101E0E4
:10099000014E7160F0BD00000000014041617047F0
:1009A0000161704710B5044607230122214609481A
:1009B000FFF78EFD01210748FFF7EBFD00BF022185
:1009C0000448FFF749FD0028F9D00248FFF740FD31
:1009D00010BD0000002401402DE9F04107460C46FF
:1009E0000025002608E03846FFF7DCFF0544052017
:1009F00002F0D0FB701CC6B2A642F4DBB5FBF4F0EB
:100A000080B2BDE8F08100BFFEE7000008B501211B
:100A1000082000F09BFA4FF47040ADF80000102061
:100A20008DF8030003208DF8020069460448FFF7A3
:100A3000E1FE4FF470410248FFF7B0FF08BD00002F
:100A4000000C014010B50121084600F07FFA012199
:100A50000148FFF75BFF10BD0002300008B501211F
:100A6000102000F073FA4FF40050ADF80000102091
:100A70008DF8030003208DF8020069460448FFF753
:100A8000B9FE4FF400510248FFF78AFF08BD00008D
:100A90000010014010B50446002C0ADBB4F5E15FFC
:100AA00001DD4FF4E154204602F09AFB204602F0AB
:100AB000BFFC002C0BDA6442B4F5E15F01DD4FF4BA
:100AC000E154204602F0A0FB204602F0C5FC10BD18
:100AD00000BFFEE770B50546022D02D0042D0BD1F4
:100AE00005E04FF0804001F09FFA04B206E00548AF
:100AF00001F09AFA04B201E0002400BF00BF2046D2
:100B000070BD0000000800407047000070B5002173
:100B100000230F22C47804B3154C246804F4E06465
:100B2000C4F5E064210AC1F10403CA40447804FA20
:100B300003F184781440214309010E4C0678A15535
:100B4000047804F01F050124AC4005786D11AD0058
:100B500005F1E025C5F8004109E0047804F01F051F
:100B60000124AC40044D0678761145F8264070BD4E
:100B70000CED00E000E400E080E100E00249014308
:100B8000024A1160704700000000FA050CED00E019
:100B900070B5002419E004F1B001C8B2002100F0E2
:100BA0000DF90021084600F009F90021102000F09D
:100BB00005F9002505E00121002000F0FFF8681C80
:100BC000C5B2802DF7DB601CC4B2082CE3DB70BD1E
:100BD00070B506460024002500BF19E004F1B001FD
:100BE000C8B2002100F0EAF80021084600F0E6F85B
:100BF0000021102000F0E2F8002506E006EBC50118
:100C0000085D012100F0DAF86D1C802DF6DB641C14
:100C1000082CE3DB70BD00001CB501210C2000F0A6
:100C200095F90320ADF8040010208DF8070003208B
:100C30008DF8060001A95348FFF7DCFD40F60101DD
:100C40005048FFF7ADFEB020ADF8000010208DF841
:100C5000030003208DF8020069464B48FFF7CAFDE8
:100C6000B0214948FFF79CFE01214648FFF798FE56
:100C7000642002F08FFA01214248FFF78FFEC8205E
:100C800002F088FA01213F48FFF78AFE0021AE20DA
:100C900000F094F80021084600F090F800211020A0
:100CA00000F08CF80021402000F088F8002181201D
:100CB00000F084F80021CF2000F080F80021A1206E
:100CC00000F07CF80021C82000F078F80021A62070
:100CD00000F074F80021A82000F070F800213F20F7
:100CE00000F06CF80021D32000F068F800210846DD
:100CF00000F064F80021D52000F060F80021802089
:100D000000F05CF80021D92000F058F80021F12013
:100D100000F054F80021DA2000F050F800211220F1
:100D200000F04CF80021DB2000F048F800214020C2
:100D300000F044F80021202000F040F800210220BB
:100D400000F03CF800218D2000F038F8002114203C
:100D500000F034F80021A42000F030F80021A62093
:100D600000F02CF80021AF2000F028F80021AF207F
:100D700000F024F8FFF70CFF0021084600F006F809
:100D80001CBD0000000C01400008014070B5044685
:100D90000D4605F1B001C8B2002100F00FF8102196
:100DA00041EA1410002100F009F804F00F0141F0AD
:100DB0000100002100F002F870BD000070B504468B
:100DC0000E4626B102211848FFF7EAFD03E0022192
:100DD0001548FFF7E3FD10211448FFF7DFFD00255C
:100DE00017E020211148FFF7D9FD04F0800020B161
:100DF00080210E48FFF7D4FD03E080210B48FFF768
:100E0000CDFD20210948FFF7CBFD6006040E681CCC
:100E1000C5B2082DE5DB10210448FFF7C1FD022112
:100E20000148FFF7BDFD70BD000C01400008014006
:100E30002DE9F05F04460D46601B2B4908602B48E6
:100E4000006809680844294908600846006802F0FB
:100E500002FE06460022264B02F062FF03D24FF448
:100E6000FA60224908602148006802F0F4FD064655
:100E70000022204B02F01AFE02D21F481B490860D4
:100E8000194800681D490968401A1D49086016483C
:100E900000681A4908601B490968194A126801FB71
:100EA00002F003F0E1F981461048006803F0DCF934
:100EB000834615480168584603F036FA80461349C0
:100EC0000968094A126801FB02F003F0CDF9824675
:100ED000414603F07DF80746494603F079F8064697
:100EE00003F0A6F9BDE8F09FC0000020B800002084
:100EF00000409F4000409FC030F8FFFFBC00002032
:100F0000C400002068000020640000206000002071
:100F10007047000001460020034A506820F440401A
:100F200008435060704700000010024029B1064A93
:100F3000D2690243044BDA6104E0034AD269824376
:100F4000014BDA61704700000010024029B1064AE7
:100F500092690243044B9A6104E0034A9269824316
:100F6000014B9A61704700000010024029B1064A07
:100F7000D2680243044BDA6004E0034AD268824339
:100F8000014BDA60704700000010024030B50021CC
:100F90000022002400232D4D6D6805F00C0121B1C5
:100FA000042905D0082923D105E0294D056022E058
:100FB000274D05601FE0254D6D6805F47012234D27
:100FC0006D6805F48034022505EB92421CB9214D71
:100FD000554305600BE01D4D6D6805F400351DB1EE
:100FE0001C4D5543056002E0194D5543056002E074
:100FF000174D056000BF00BF144D6D6805F0F0018E
:101000000909154D6B5C0568DD4045600F4D6D6845
:1010100005F4E061090A104D6B5C4568DD408560B0
:101020000A4D6D6805F46051C90A0B4D6B5C45684B
:10103000DD40C560054D6D6805F44041890B074DE5
:101040006B5CC568B5FBF3F5056130BD001002406F
:1010500000127A0000093D00E2000020F2000020AA
:1010600070B50546022D02D0042D14D10AE04FF0D0
:10107000804000F0D9FF04B200214FF0804001F021
:10108000F5F80AE0064800F0CFFF04B2002104485A
:1010900001F0ECF801E0002400BF00BF204670BD65
:1010A0000008004010B54FF480610248FFF7CCF80B
:1010B00010BD0000C00200202DE9F04F8BB00446A7
:1010C0000E4615464FF0000900200A90824609900E
:1010D000834600BF0890B44202DA0A9434460A9E5E
:1010E000102D00DD1025884800688470A01B8649FB
:1010F0000968C87084480068C078A84203DB681E8D
:1011000081490968C87000F007FA8246BAF1500FA9
:101110001FD17D480068007800280ADD7B480078F0
:1011200038B9794800680078401E77490968087026
:1011300039E0754800684078002834DD734800784D
:1011400088BB714800684078401E6F490968487044
:1011500029E0BAF1200F26D16B48006800786A496F
:101160000968C97888420ADA6848007838B9664858
:1011700000680078401C64490968087013E0624800
:101180000068417860480068C078281A401E814293
:1011900009DA5E48007830B95B4800684078401C46
:1011A00059490968487058480068407856490968A4
:1011B0000978084400F0FF0BE000534909684860D3
:1011C000F0005149096888604F48006801794E482D
:1011D00000680078A1EBC000C0B2099086204CA343
:1011E000012200900020099900F0E8FA062C0FD0A7
:1011F0000220009044480068406800F1080342481B
:101200000068406800F108017F22002000F0B0F87B
:101210006CB1022000903C4800688068431E3A4848
:1012200000688068411E7F22002000F0A1F8284657
:1012300002F028FCCDE90601334909684968324AC1
:1012400012689268891A01F1080002F01BFCCDE9CE
:101250000401DDE9062302F049FA074688460BF14E
:10126000010002F0F8FB3A464346CDE9000102F0E6
:1012700059FCCDE90401244909684968C81D02F0F8
:1012800001FCCDE90201DDE9042302F08BFDCDE98B
:10129000060102F0B3FB0890089802F0F3FB3A460F
:1012A0004346CDE9020102F06DF9CDE9040102F0F7
:1012B000A5FB0790042000907F227C20DDE9073108
:1012C00000F0C9F8012000900F4800684068C31D75
:1012D0000D4800687F2281687C2000F0BCF84FF048
:1012E00000090BE0CB4501D1012000E000200949B5
:1012F00001F8090009F1010000F0FF09A945F1DD3D
:101300000BB0BDE8F08F00001401002004010020A4
:1013100025630000CC060020F0B50B460024802891
:1013200001D2402B00D3F0BD0726A6EBD306F1B2C5
:1013300003F00705C5F107070126BE40F4B24AB124
:101340000A4E06EBC006765C2643084F07EBC00743
:101350007E5408E0054E06EBC006765CA643034FBC
:1013600007EBC0077E5400BFDDE70000C00200208D
:101370002DE9FF4F81B081460398A0EB090004B22C
:1013800002990498401A05B2002C01DD012000E00A
:1013900000200121C1EB400A002D01DD012000E009
:1013A00000200121C1EB400B0FFA89F702980FFAD8
:1013B00080F8002000900026002C01DA604200E056
:1013C000204604B2002D01DA684200E0284605B24A
:1013D000AC421EDD0FFA89F716E00098401C009021
:1013E00041463846009B0E9A01F0D4F9701906B2B6
:1013F000B4EB460F05DC08EB0B000FFA80F8301B4E
:1014000006B207EB0A0007B203985044B842E4D191
:101410001EE002980FFA80F816E00098401C009039
:1014200041463846009B0E9A01F0B4F9301906B2D5
:10143000B5EB460F04DC07EB0A0007B2701B06B2DF
:1014400008EB0B000FFA80F8049858444045E4D1AB
:1014500005B0BDE8F08F2DE9F84F07460C469046E1
:101460001E460A9D4FF0000AD14605F0040008B957
:10147000002D33D1474502D9BA464746D046B4423B
:1014800002D9A2463446564615B94FF0000901E08C
:101490004FF00109B44209D123464246214638465D
:1014A000CDF80090FFF764FFBDE8F88F474508D1FD
:1014B00033463A4621463846CDF80090FFF758FFAC
:1014C000F2E708E02346424621463846CDF8009030
:1014D000FFF74EFF641CB442F4D91BE033463A4692
:1014E000214638460095FFF743FF334642463146D2
:1014F00038460095FFF73CFF3346424621464046BA
:101500000095FFF735FF23464246214638460095B1
:10151000FFF72EFF00BFC7E70148007870470000C3
:101520000301002010B504462046FFF751FB10BD13
:1015300010B501F00DFEFFF76FFBFFF729FB10BDA3
:1015400010B50446FFF7F4FF4FF480610348FEF73F
:101550007BFE204600F032F810BD0000C0020020E3
:1015600010B5FFF721F9114908701148006800F023
:101570002FF80F490968886880470C480078602870
:1015800012D10C48007878B909480068406858B111
:101590000748006840680649086000200649096855
:1015A000087005490968487010BD0000030100205B
:1015B000F8000020040100201401002000B50246BC
:1015C00002480260FFF70AF900BD0000F8000020A1
:1015D000F8B5044600BF00BF2068FEF716FE001DE8
:1015E00000EB40004006060EC6F18000C0F3470540
:1015F000206813A3012238210090A81C00F0DEF817
:1016000001203923AA1C194600900620FFF7B0FEDE
:101610000120A9190090881E392379221946FFF765
:10162000A7FE606850B10848007838B9852007A344
:10163000012238210090002000F0C0F8F8BD000021
:101640005B202573205D000004010020256300005D
:101650002DE9FE4F0446884615461E46012002909D
:1016600004F0FF0B3146684600F06AF89DF8000070
:1016700030400290A5F12000C5B29DF80200401E46
:1016800047B233E09DF80210019805FB010010F805
:1016900007904FF0000A23E009F0800028B141468E
:1016A0002046029AFFF738FE09E0029808B90120A7
:1016B00000E00020024641462046FFF72DFE4FEA9B
:1016C00049604FEA1069641CA4EB0B00082803D1A1
:1016D0005C4608F1010806E00AF1010000F0FF0A8B
:1016E000BAF1080FD8DB00BF781E47B2002FC9DA65
:1016F000BDE8FE8F2DE9FC410646884614461F468C
:1017000000253946684600F01BF80AE0625D3B465A
:1017100041463046FFF79CFF9DF801000644681CD7
:10172000C5B2605D0028F1D1BDE8FC8110B5034869
:10173000FFF7F8FEFFF7B6FC10BD0000C002002066
:1017400029B1012902D0FE2907D101E000BF00BF65
:10175000054B0CCBC0E900237047034B0CCBC0E911
:10176000002300BFF8E70000080100200FB47CB59B
:10177000044600251048007800F0020010B17CBC3F
:101780005DF814FB102C00DBF9E7204601F044F86B
:1017900001280FD1204601F055F8054608A8019010
:1017A00001980090012229460620079B01F058F875
:1017B0000020019000BFE2E7040100200FB47CB5D7
:1017C00004460D4616460AA801900198009032463C
:1017D00029462046099B01F043F8002001907CBC7B
:1017E0005DF814FB704710B500F002F810BD000062
:1017F0000CB50020019000903348006840F4803020
:101800003149086000BF3048006800F400300090A3
:101810000198401C0190009818B90198B0F5A06F8C
:10182000F1D12948006800F4003010B10120009087
:1018300001E0002000900098012843D1234800686F
:1018400040F01000214908600846006820F00300BD
:1018500008600846006840F0020008601A484068C6
:10186000194948600846406848600846406840F4A6
:10187000806048600846406820F47C104860084654
:10188000406840F4E81048600846006840F0807006
:10189000086000BF0C48006800F000700028F9D014
:1018A0000948406820F0030007494860084640683E
:1018B00040F00200486000BF0348406800F00C00A0
:1018C0000828F9D10CBD00000010024000200240A1
:1018D000042808D14FF0E021096941F004014FF0DC
:1018E000E022116107E04FF0E021096921F00401D5
:1018F0004FF0E022116170477047000010B51348A7
:10190000006840F00100114908600846406810492D
:1019100008400E494860084600680E4908400B49D7
:1019200008600846006820F4802008600846406887
:1019300020F4FE0048604FF41F008860FFF753FF5B
:101940004FF000600449086010BD00000010024024
:101950000000FFF8FFFFF6FE08ED00E0F0B50C46D2
:10196000154600220021068C4FF6FE773E40068485
:10197000028B018C4FF60C7632407E1C06EA031671
:101980002E433243104EB0420ED0104EB0420BD018
:10199000B0F1804F08D00E4EB04205D00D4EB0428F
:1019A00002D00D4EB04206D14FF6FD76314044F0E4
:1019B0000106314305E04FF6F576314044F001066B
:1019C000314302830184F0BD002C0140003401400A
:1019D0000004004000080040000C0040F0B50C4638
:1019E0001546002200210026078C4FF6EF7C07EAFF
:1019F0000C070784028B018C4FF6FF7707EA041669
:101A000040F6FF473A404FF6FF7707EA03373A437D
:101A10004FF6FF7707EA05273A43114FB8420ED039
:101A2000104FB8420BD0B0F1804F08D00E4FB842E3
:101A300005D00E4FB84202D00D4FB84206D14FF636
:101A4000DF77394046F01007394305E04FF65F77FE
:101A5000394044F01007394302830184F0BD00008F
:101A6000002C014000340140000400400008004008
:101A7000000C0040F0B50C4615460022002100265F
:101A8000078C4FF6FF6C07EA0C070784828B018CEA
:101A90004FF6FF7707EA04264FF60C773A404FF6E9
:101AA000FF7707EA03172F433A43114FB8420ED08E
:101AB000104FB8420BD0B0F1804F08D00E4FB84253
:101AC00005D00E4FB84202D00D4FB84206D14FF6A6
:101AD000FF57394046F48077394305E04FF2FF570E
:101AE000394044F48077394382830184F0BD00009B
:101AF000002C014000340140000400400008004078
:101B0000000C0040F0B50C461546002200210026CE
:101B1000078C4EF6FF7C07EA0C070784828B018C4A
:101B20004FF6FF7707EA043640F6FF473A404FF694
:101B3000FF7707EA05273A434FF6FF7707EA0337AF
:101B40003A43114FB8420ED0104FB8420BD0B0F10B
:101B5000804F08D00E4FB84205D00E4FB84202D089
:101B60000D4FB84206D14DF6FF77394046F4805705
:101B7000394305E047F6FF57394044F4805739436D
:101B800082830184F0BD0000002C0140003401403C
:101B90000004004000080040000C004030B589B04F
:101BA00005460C460121C802FFF7D0F901210520A6
:101BB000FFF7CCF94FF41060ADF8200018208DF835
:101BC000230003208DF8220008A92448FEF712FE06
:101BD000A8B2ADF81800A0B2ADF814000020ADF81E
:101BE0001A00ADF8160005A91D4800F06DFB602035
:101BF000ADF804000020ADF80C000120ADF806009F
:101C00000020ADF80A0001A9154800F089FA60200B
:101C1000ADF804000020ADF80C000120ADF806007E
:101C20000020ADF80A0001A90D4800F0CFFA01210B
:101C30000B4800F0C9F90821094800F0BDFA082155
:101C4000074800F001FB0121054800F09FF9012140
:101C5000034800F0ADF909B030BD000000080140B4
:101C6000002C014010B50121880700F0E0F918B1FF
:101C70000121880700F099F910BD000070B501211D
:101C8000864800F0D4F901287ED103210220FEF716
:101C9000A3FE834908600846006802F0FDFA054685
:101CA00080480168284602F03DFC04467E480168F1
:101CB000204602F0FBF97D4908607D497B480068B9
:101CC00002F0FEFB06D2794801687A4802F080F9FA
:101CD0007649086078497548006802F0F1FA06D242
:101CE00072480168754802F073F9704908607448D9
:101CF00001686E48006802F015FC724908606B4884
:101D000000686F49086070480078022804D00420F9
:101D1000FFF7A6F96D4908606B48007898B9002074
:101D2000FEF7B8FE00206A4908606A490870002181
:101D30004FF0804000F09AFA002067490860674938
:101D40000860674908606048007801284AD1654802
:101D500000685E4909680844624908606248016891
:101D60006248006802F0E0FA054602F061FA0446B3
:101D70005C4801682046FFF75BF85D49086008464B
:101D80000068B0F57A7F00E087E002DD4FF47A70FA
:101D900008605748006810F57A7F02DA55485449C0
:101DA000086053480068FEF775FE53480068401C01
:101DB0005149086008460068B0F5C87F12D9002074
:101DC000414908704C490860FEF764FE002045490F
:101DD00008604A4908703D49086000214FF0804082
:101DE00000F044FA38480078022852D13948007887
:101DF00038B90420FEF76EFE3749086001203549E6
:101E000008703E480078042807DD0420FEF762FED3
:101E10002E49086000203949087038480078401C75
:101E2000364908702148006800F034FC34490860E5
:101E30002648006800F0B8FB324908603048006866
:101E40000968401A224908602F491848006802F0C2
:101E500037FA1BD22D491548006802F031FB15D224
:101E60001B480068B0F5E15F03DD4FF4E15018490D
:101E700008601748006810F5E15F02DA2448144949
:101E8000086013480068FEF705FE02E00020FEF738
:101E900001FE0121014800F088F870BD00040040F7
:101EA0000000002050000020540000200800002006
:101EB000000034430000B4C3000034C30000B44346
:101EC000D00000200C0000205C0000201400002046
:101ED0004C000020CD000020740000209C00002059
:101EE000A0000020D40000206C0000207000002022
:101EF0004800002018FCFFFFD8000020CC00002084
:101F0000400000204400002000003442000034C2A1
:101F1000E0E3FFFF7FB505460C4601210220FFF7F5
:101F200005F8ADF80850ADF804400020ADF8060003
:101F3000ADF80A0001A90D4800F0C6F901221146CA
:101F40000A4800F0E4F81D208DF8000003208DF809
:101F500001008DF8020001208DF803006846FEF7AD
:101F6000D5FD0121014800F023F87FBD00040040A9
:101F700010B50121044800F05AF818B101210248B7
:101F800000F013F810BD00000008004021B10288E5
:101F900042F08002028004E002884FF67F731A400C
:101FA00002807047CA4302827047CA430282704768
:101FB00021B1028842F00102028004E002884FF65B
:101FC000FE731A400280704731B1B0F8442042F4E9
:101FD0000042A0F8442005E0B0F84420C2F30E020D
:101FE000A0F844207047F0B50C4615461E46002167
:101FF000002200230189028B038C4FF6F8773940C9
:1020000021434FF6FC473A4040F201173A434FF65E
:10201000DD773B404FF6FF7707EA06172F433B4338
:10202000018102830384F0BD0146888C704730B57E
:102030000246002000230024158A05EA0103958941
:1020400005EA010413B10CB1012000E0002030BD0D
:1020500070B505460C46244885420ED0234885427B
:102060000BD0B5F1804F08D02148854205D02148DA
:10207000854202D02048854200D100E000BF208880
:1020800050B92389A28861882846FFF767FCE18858
:10209000284600F0EDF825E0208804280AD123899D
:1020A000A28861882846FFF799FCE188284600F05D
:1020B000E8F817E0208808280AD12389A2886188D7
:1020C0002846FFF7D7FCE188284600F0E7F809E04A
:1020D0002389A28861882846FFF714FDE1882846F5
:1020E00000F0E5F870BD0000002C01400034014014
:1020F0000004004000080040000C00400021018066
:102100004180012181800021C180018170471AB185
:1021100083890B43838102E083898B4383817047EA
:1021200070B5002400220023058C4FF6FE76354062
:102130000584028C8388048B4FF68F752C40B51E66
:102140002C400D882C43751E2A400D892A434D884A
:102150002A43144DA8420BD0134DA84208D0134D6A
:10216000A84205D0124DA84202D0124DA84213D168
:102170004FF6F7752A404D892A434FF6FB752A40E2
:102180008D882A434FF6FF652B404FF6FF552B40B5
:102190008D892B43CD892B4383800483CD8885860D
:1021A000028470BD002C0140003401400040014019
:1021B00000440140004801400A460021018B4FF6CF
:1021C000F7731940114301837047000070B5002276
:1021D00000230024058C4EF6FF7635400584038CE1
:1021E0008488828B48F6FF752A404FF6FF452A40C7
:1021F0000D884FF6FF7606EA05252A434DF6FF7552
:102200002B400D8906EA05352B434D8806EA053536
:102210002B430B4DA84202D00A4DA84208D14BF6E1
:10222000FF752C408D894FF6FF7606EA85152C4305
:1022300084808283CD88A0F84050038470BD000064
:10224000002C0140003401400A460021818B4FF2EE
:10225000FF7319404FF6FF7303EA0223194381838A
:10226000704781867047A0F840107047818470479E
:10227000028B4FF6F3731A400283028B0A430283E8
:102280007047028B4FF2FF331A400283028B4FF6E6
:10229000FF7303EA01231A4302837047828B4FF6D0
:1022A000F3731A408283828B0A4382837047828B46
:1022B0004FF2FF331A408283828B4FF6FF7303EA9B
:1022C00001231A4382837047002202881D4B9842E3
:1022D0000ED01D4B98420BD0B0F1804F08D01B4B55
:1022E000984205D01A4B984202D01A4B984204D11A
:1022F0004FF68F731A404B881A43174B984207D0FA
:10230000164B984204D04FF6FF431A40CB881A432D
:1023100002808B8883850B8803850A4B98420BD0FB
:10232000094B984208D00E4B984205D00D4B98426D
:1023300002D00D4B984201D10B7A03860123838290
:1023400070470000002C01400034014000040040B0
:1023500000080040000C0040001000400014004045
:102360000040014000440140004801404FF6FF7129
:10237000818000210180C18041800172704700008E
:1023800010B540F225511D4800F04AF810B31B4823
:1023900000F002F9C4B21A48008800F40040C8B93D
:1023A0001748008800F4804060B10A2C03D0002058
:1023B0001349088020E01248008840F4004010498A
:1023C000088019E00D2C06D10D48008840F48040AB
:1023D0000B49088010E00A480088C0F30D00094945
:1023E0000C5407480088401C0549088008460088AE
:1023F000C72801DD0020088010BD00000038014022
:10240000DC0000203001002021B1828942F400521A
:10241000828104E082894DF6FF731A408281704701
:1024200070B50246002400230025002040F66A16FD
:10243000B14200D100BFC1F3421501F01F030126D4
:1024400006FA03F3012D02D19689334006E0022DEE
:1024500002D1168A334001E0968A33400C120126DD
:1024600006FA04F41688344013B10CB1012000E0E0
:10247000002070BDF0B50346002400260025002092
:1024800040F66A17B94200D100BF1846C1F34214A2
:1024900001F01F06012707FA06F5012C01D10C30C7
:1024A00004E0022C01D1103000E014301AB10768AA
:1024B0002F43076002E00768AF430760F0BD0000EC
:1024C0002DE9F04786B005460E460024A24600BF1F
:1024D000A1460027B08900B100BF2F462C8A4CF6D8
:1024E000FF700440F08804432C82AC894EF6F31050
:1024F0000440B08831890843718908430443AC81A2
:10250000AC8A4FF6FF400440B0890443AC8201A876
:10251000FEF73CFD1F48874202D1DDF810A001E024
:10252000DDF80CA0A88900F4004040B10AEBCA0015
:1025300000EB0A1031684900B0FBF1F807E00AEB44
:10254000CA0000EB0A1031688900B0FBF1F8642082
:10255000B8FBF0F004012009642101FB1089A8896F
:1025600000F4004040B1322000EBC900B0FBF1F0B4
:1025700000F00700044308E0322000EB091064215A
:10258000B0FBF1F000F00F0004432C8106B0BDE871
:10259000F08700000038014001468888C0F3080039
:1025A000704700BFFEE700002DE9FC4782462E4938
:1025B0000968AAEB010001F057FE2C4908602C487D
:1025C000006801F0D9FC04462A4A2B4B01F0AAFA14
:1025D000064600F0A5FF264908602448006801F07F
:1025E000CBFC0646234A254B01F09CFA04460D46D7
:1025F0001F48006801F0C0FC804622462B4600F0D0
:10260000C1FFCDE9000100F08BFF194908601C48AB
:1026100001681748006801F085FF1A4908601448EE
:102620000068174908601848006801F01DFE06465A
:1026300014480168304601F077FE044613480068EC
:1026400001F012FE06460A480168304601F06CFEB1
:102650000546214601F0BCFC0D49086008460068AB
:1026600001F0E6FDBDE8FC8774000020B400002006
:102670009C0000209A9999999999E93F9999C93FA5
:10268000A0000020B00000203C000020340000200A
:10269000AC0000202DE9F04705460021284601F056
:1026A00041FF044611480168204601F03BFF1049F4
:1026B0000860104801680E48006801F035FE814648
:1026C0000D480068404201F0CFFD8246214601F0EE
:1026D0002BFE8046494601F025FF074601F0A8FD84
:1026E0000646024804603046BDE8F087A40000209A
:1026F000A8000020300000202C00002070B504222B
:1027000000210620FEF7D8FC1148006801F034FCD7
:10271000044622460B460FA10020FFF727F80F487A
:102720000FA102680120FFF721F8114811A10268EA
:102730000220FFF71BF81248006801F01DFC044658
:1027400022460B460FA10320FFF710F870BD0000D2
:1027500008000020726F6C6C3D2566003C00002074
:1027600056656C6F636974795F4B643D2564000046
:102770004C0000204C61737450574D3D256400009F
:102780006C0000205461726765745F616E676C65F0
:102790003D2566002DE9F04106460F4615461C46CC
:1027A00005F0030030B1012829D0022808D0032801
:1027B00026D114E0002239463046FEF7ADFD25E073
:1027C00004F0010028B1012239463046FEF7A4FD8D
:1027D00004E0002239463046FEF79EFD16E004F084
:1027E0000300022805D3012239463046FEF794FD46
:1027F00004E0002239463046FEF78EFD06E000BFB9
:10280000012239463046FEF787FD00BF00BFBDE814
:10281000F081704770470000014609480068407821
:10282000081A0AD4064800684078081A044A126850
:10283000D278904201DC012070470020FCE70000C4
:10284000140100200146054800688078401A034AB8
:10285000126852781044C000704700001401002034
:102860002DE9FF4F9FB01D461F9800F0FF08002084
:102870001C9003201B9001200C90219908A8FEF7C2
:102880005FFF00201290109049E215F8011B4CB236
:1028900004B949E2252C0BD0E2B24046DDE9201311
:1028A000FEF7D6FE9DF82100404400F0FF0831E21B
:1028B00000208146834600BF199015F8011B4CB2D9
:1028C000302C05D14FF0010915F8011B4CB20EE078
:1028D0002D2C05D14FF0020915F8011B4CB206E072
:1028E0002E2C04D101201C9015F8011B4CB218E0CD
:1028F0001C9801280BD1199800EB800004EB4000D4
:102900003038C0B2199015F8011B4CB209E00BEB3E
:102910008B0004EB4000303800F0FF0B15F8011B72
:102920004CB2302C01DB392CE2DD1C98012806D199
:102930001998072801DD072000E019981B906C2CDE
:1029400001D04C2C04D149F0040915F8011B4CB2FC
:1029500004B9E9E12746612C04DB7A2C02DCA7F1FB
:10296000200047B24F2F79D008DC422F77D0432F79
:1029700064D0442F74D0462F73D174E0532F04D009
:10298000552F6FD0582FF7D121E12C980068139064
:102990002C98001D2C904FF0000A03E00AF1010072
:1029A00000F0FF0A139810F80A000028F6D1CDF8BD
:1029B0003CA0119009F00200A8B90EE02022404688
:1029C000DDE92013FEF744FE1198401C00B211907F
:1029D0009DF82100404400F0FF085046411C01F0E2
:1029E000FF0A5845EADB4046DDE92013139AFEF75B
:1029F00081FE9DF821100F9801FB008000F0FF0878
:102A00000F991198084400B211900EE02022404620
:102A1000DDE92013FEF71CFE1198401C00B2119056
:102A20009DF82100404400F0FF085046411C01F091
:102A3000FF0A5845EADB119810906BE12C9810F8CA
:102A4000041BCAB22C904046DDE92013FEF700FEBD
:102A50009DF82100404400F0FF085BE1B0E0ACE0ED
:102A6000B1E0B7E0B0E02C98C01D20F007000146AF
:102A70002C90006849682C9A08322C92CDE90A0102
:102A800000221346DDE90A0101F010F80BD21B9871
:102A900040F008001B900022A54BDDE90A0101F07F
:102AA00041F8CDE90A01DDE90A0100F077FF00B243
:102AB0000E9001200C901B9800F007001A9009E07E
:102AC0000C9800EB8000400000B20C901A98401E59
:102AD000C0B21A901A98401E0028F1D50E9800F046
:102AE000BAFFCDE90001DDE90A2301F04FF9CDE994
:102AF00004010C9800F0AFFFCDE90201DDE90423E9
:102B000001F010F8CDE9060100F048FF00B20D9089
:102B100000261B9800F007001A901CE00D98A0B149
:102B20000A210D9890FBF1F201FB120047B20D98BB
:102B300090FBF1F000B20D9007F1300042B2304648
:102B4000711CCEB214A90A5405E030223046711C23
:102B5000CEB214A90A541A98411EC9B21A9100287B
:102B6000DCD12E223046711CCEB214A90A5400BF0B
:102B70000A210E9890FBF1F201FB120047B20E9869
:102B800090FBF1F000B20E9007F1300042B23046F7
:102B9000711CCEB214A90A540E9808B1102EE7D3B6
:102BA0001B9800F0080028B12D223146701CC6B2D7
:102BB00014A8425400201C906AE002201D9017E0E7
:102BC00008201D9014E000BF0A201D9010E0102086
:102BD0001D900DE0E2B24046DDE92013FEF738FD1E
:102BE0009DF82100404400F0FF080120109091E082
:102BF00000BF09F0040028B12C9800682C99091D29
:102C00002C910CE0442F05D12C9800682C99091DBB
:102C10002C9104E02C9800682C99091D2C91189097
:102C2000442F08D1189800F0004020B11898404275
:102C3000189049F00809002600BF1D991898B0FBAC
:102C4000F1F201FB120047B21D991898B0FBF1F0A8
:102C50001890092F06DD782C01D1272000E00720ED
:102C6000384447B207F1300042B23046711CCEB250
:102C700014A90A54189808B1102EDED309F00800E0
:102C800028B12D223046711CCEB214A90A5400BFBF
:102C9000B24609F0010008B1302000E020200746CC
:102CA0000AE0FAB24046DDE92013FEF7D1FC9DF8B8
:102CB0002100404400F0FF0809F0020028B9504606
:102CC000411C01F0FF0A5845EBDB00BF701EC0B28B
:102CD000064614A90A5C4046DDE92013FEF7B8FC5D
:102CE0009DF82100404400F0FF08002EEED10AE0DC
:102CF000FAB24046DDE92013FEF7AAFC9DF8210058
:102D0000404400F0FF085046411C01F0FF0A5845BE
:102D1000EEDB00BF10991298084400B21290109890
:102D2000401C00287FF4B1AD00BF23B0BDE8F08F98
:102D30000000F0BF00BF70472DE9F047DB48008876
:102D400000287DD0642000F025FAD9A1D948FDF7EC
:102D50009DFA20B9D84800680A38D7490860D7A139
:102D6000D448FDF793FA20B9D34800680A30D24915
:102D70000860D3A1CF48FDF789FA30B9D149D248CC
:102D8000006801F0CFFBD0490860D0A1C948FDF729
:102D90007DFA30B9CB49CC48006801F019F9CA492D
:102DA0000860CBA1C348FDF771FA20B9C948006893
:102DB0001430C8490860C8A1BE48FDF767FA20B9B9
:102DC000C44800681438C3490860C4A1B948FDF775
:102DD0005DFA20B9C2480068401EC1490860C1A11F
:102DE000B448FDF753FA20B9BD480068401CBC49FF
:102DF0000860BDA1AF48FDF749FA68B9BB48006853
:102E000001F0BAF80646BA4ABA4B00F0CBFF0446C6
:102E100000F086FBB5490860B7A1A648FDF736FA71
:102E200068B9B248006801F0A7F80646B04AB14B4D
:102E300000F0A8FB044600F073FBAC49086000E01A
:102E400031E1AEA19B48FDF721FA20B9AC480068FA
:102E50003238AB490860ABA19648FDF717FA20B9A4
:102E6000A74800683230A6490860A7A19148FDF73D
:102E70000DFA10B90020A6490870A6A18D48FDF7EB
:102E800005FA10B90120A2490870A4A18948FDF7EC
:102E9000FDF910B902209E490870A2A18548FDF7EE
:102EA000F5F918B900F00AFAA0490860A0A1814814
:102EB000FDF7ECF918B900F061FA9E4908609EA18F
:102EC0007C48FDF7E3F908B900F002FA7948407848
:102ED0006C2807D0774880786C2803D07548C07874
:102EE0006C285FD1734840786C2809D17149087803
:102EF00001F0D2F90446924901F014FB91490860AF
:102F00006C4880786C281AD16A49487801F0C4F975
:102F100007466849087801F0BFF98046884901F002
:102F200001FB0646674901F0FFF90546394601F005
:102F30004FF80446824901F0F5FA824908605D487D
:102F4000C0786C282BD15B49887801F08DF98146D7
:102F50005849487801F0A0F98246794901F0E2FA2F
:102F60008046584901F0E0F906465249087801F0D8
:102F700093F98246724901F0D5FA8046724901F010
:102F8000D3F90746314601F023F80546494601F0DA
:102F90001FF804466A4901F0C5FA6A490860012031
:102FA0005B49087043484078722807D041488078D0
:102FB000722803D03F48C078722865D13D484078D8
:102FC00072280BD13B49087801F066F904465C4948
:102FD00001F0A8FA80F000405A490860354880782E
:102FE00072281CD13349487801F056F90746314917
:102FF000087801F051F98046514901F093FA0646EC
:10300000304901F091F90546394600F0E1FF0446E8
:103010004B4901F087FA80F000404A490860254892
:10302000C07872282DD12349887801F01DF9814696
:103030002049487801F030F98246414901F072FA9E
:103040008046204901F070F905461A49087801F0D8
:1030500023F982463A4901F065FA80463A4901F07F
:1030600063F90646294600F0B3FF0446494600F0DE
:10307000AFFF0746324901F055FA80F00040314970
:1030800008600120224908700020084908802F4864
:10309000006808B9012000E000202C490860C82120
:1030A0000448FDF7D1F8BDE8F0870000DC000020FF
:1030B00070300000300100202C0000207031000032
:1030C0006430000000002041300000206431000026
:1030D000693100003C000020693000007070300051
:1030E00060000020707031007069300064000020C2
:1030F0009A9999999999B93F706931007064300033
:1031000068000020706431006D6F6465300000005D
:103110005C0000206D6F6465310000006D6F6465B8
:10312000320000006D6964646C650000500000208E
:10313000726174005400002072617432000000005B
:10314000000040426C0000200000C842B40122424E
:1031500010B56FF00400FEF7BBFB0A4800680A498F
:10316000B0FBF1F0094908700846007800EB400117
:10317000C1EBC0104FF6FF7101EAC000044908809E
:1031800010BD00001C01002000127A00DE000020AB
:10319000E00000200146114A12884A434FF0E02324
:1031A0005A6100229A611A46126942F001021A61BC
:1031B00000BF4FF0E022106900F001021AB100F4E4
:1031C0008032002AF5D04FF0E022126922F001028D
:1031D0004FF0E0231A6100229A617047E00000205E
:1031E00010B50446A1B20548FFF73BF80120044999
:1031F000086000200349C1F8B40110BD002C014053
:10320000B08121420080214210B50446A1B2054898
:10321000FFF727F800200449086001200349C1F89E
:10322000B40110BD002C0140B08121420080214238
:10323000FDF714FCFFF78CFF092140F69F70FEF7A5
:10324000ADFCFDF7FFFB4FF4A060FDF797FCFDF729
:10325000B1F9FDF75BFAFDF709FAFDF7D7FB4FF47B
:10326000E13000F00DF9C8210D48FCF7EDFF00F04A
:103270001DF8FDF7D1FCFEF759FA632140F23F60DB
:10328000FEF748FE0748006801F006F806490860A6
:1032900005E0FEF765F9FFF74FFDFEF747FAF8E79F
:1032A00030010020000000205000002010B502482E
:1032B000FEF746F910BD00007800002010B5034865
:1032C000006800F0E9FF0446204610BD0000002021
:1032D00070B5002022490880C8212248FCF7B4FFBD
:1032E00000BF1F4800880028FBD01D48008890B10F
:1032F0006420FFF74FFF1CA11A48FCF7C7FF18B95D
:1033000000211A48FEF7B2FF002015490880C821A5
:103310001448FCF799FF00BF114800880028FBD033
:103320000F480088D0B16420FFF734FF10A10D488A
:10333000FCF7ACFF58B90D48FEF776FE054600F0E5
:10334000ABFF04460B4900F0B1FE0B4908600020BA
:1033500003490880C8210348FCF776FF70BD0000D0
:10336000DC00002030010020770000000008004051
:103370007300000000003444700000202DE9F0418B
:10338000002025490880C8212448FCF75DFF00BFC4
:10339000214800880028FBD01F48008898B164208D
:1033A000FFF7F8FE1EA11D48FCF770FF20B91D486D
:1033B000006800F071FF0646002017490880C82108
:1033C0001648FCF741FF00BF134800880028FBD0D7
:1033D0001148008898B16420FFF7DCFE12A10F4865
:1033E000FCF754FF20B90F48006800F055FF054670
:1033F000002009490880C8210848FCF725FF294614
:10340000304601F08FF80746084900F04FFE0446A9
:103410002046BDE8F0810000DC00002030010020E3
:10342000770000000000002073000000000034431B
:1034300010B50446A1B20548FEF715FF0120044966
:10344000086000200349C1F8BC0110BD002C0140F8
:10345000B88121420080214210B50446A1B205483E
:10346000FEF701FF00200449086001200349C1F86C
:10347000BC0110BD002C0140B881214200802142D6
:1034800010B586B00446012144F20400FDF75EFD4C
:103490004FF40070ADF8140003208DF816001820CA
:1034A0008DF8170005A91C48FDF7A4F94FF48060BA
:1034B000ADF8140004208DF8170005A91648FDF793
:1034C00099F925208DF8000000208DF801008DF875
:1034D000020001208DF803006846FDF717FB0194F8
:1034E0000020ADF80800ADF80A00ADF80C00ADF80A
:1034F00010000C20ADF80E0001A90848FEF7E0FF0F
:10350000012240F225510548FEF7B4FF012103488E
:10351000FEF77AFF06B010BD0008014000380140F8
:1035200021F00042A2F16052B2F5801F01F0004389
:1035300028BFD2F17F6C0BD95FEA001C43EAC202BC
:1035400042EB507018BF704728BF20F00100704751
:10355000B2F5801FBCBF184670474FEA410C1CF5FE
:10356000001F02D2084600F0A6BF70B500F084FB31
:1035700000000089FFF7F6BF4FF00040A0F5800083
:103580007047000010B591EA030F48BF83F0004375
:1035900000F11084841A71EB030C05D2121943EB6D
:1035A0000C03001B61EB0C01DFF824E14FEA11541E
:1035B000A4EB135C1EEA430F18BF9EEA445F73D06E
:1035C00023EA0E03DCF1200E21EA045143F48013B8
:1035D00032D322FA0CFE10EB0E0023FA0CFE41EB64
:1035E0000E01CCF1200E03FA0EFE10EB0E0051F18D
:1035F0000001B1F5801FCCF1200E32D201EB045155
:1036000012FA0EF2BDE8104058BF7047401C38BF98
:103610005FEA420218BF7047002814BF20F0010083
:1036200041F100014FEA410313F5001F38BF704715
:10363000A1F1C04100F06EBB012A43EB0302ACF1E3
:10364000200CDCF11F0E32BF4FF0000E23FA0CF3FA
:1036500010EB030041EB0451B4EB115FD0D0A1EBB0
:10366000045101F5801149085FEA300001EB045173
:103670000ED350F1000038BF12FA0EFE08D1BDE89B
:103680001040C9E7401C38BF5FEA4202CAD1C3E715
:10369000BDE810404FEA410313F5001F38BF7047E3
:1036A000A1F1C04100F036BB9EEA445F08D011EAA8
:1036B0005E0FBDE8104004BF01F0004100207047DC
:1036C000BDE8104070B500F0D7FA00BF64FBBE3E05
:1036D0000000E0FF491058BFC1F140415B1058BFE6
:1036E000C3F140438B42EFF3008070472DE9C041A6
:1036F00030B4DFF8A0C23CEA111418BF3CEA13143E
:1037000000F0EC8081EA03051CEA111444EAD57448
:1037100018BF1CEA131500F0C780A4EB05044FF096
:10372000004545EAC12145EAC32341EA505143EA35
:10373000525304F17F74994204F500344FEAC020DB
:103740004FEAC22208BF904200F09C804FEA136506
:103750000FF24016765D4FEA134506FB05F7C7F1F9
:10376000807706FB07F74FEAD737A7FB0368764257
:10377000C8F58038A7FB06CE38BFA8F1010807FBC3
:1037800008E64FF0000EA6FB028CE6FB03CEDCF150
:10379000000CCEF1004E38BFAEF1010EA6FB0C5866
:1037A0004FF000074FF00005E6FB0E87A1FB08C6AF
:1037B000A0FB07CE16EB0E0645F10005E1FB076501
:1037C00015F1E04E7EBFA4F580345FEA46066D41F8
:1037D00016F1800745F100054FEA17274FEA066604
:1037E00047EA0567A6F1DE46B6F1805F4FEA152588
:1037F0001FD9384624F0010C05EBC471BCF1FE6FF3
:1038000001EB0C1102D8F0BCBDE8008124425CBF82
:1038100001F5801E9EEAC47F02D4F0BCBDE80081A1
:10382000244238D4F0BCA1F1C041BDE8004100F011
:1038300071BA4FEAD22242EA43524FEAD323A7FB9E
:1038400002864FEAD02040EA415007FB03661EEA99
:103850000E0F4FEAD12105FB026658BFA6EB0056BA
:10386000B6EB00564FEA520E4EEAC37E18EB0E0E30
:1038700056EB530EBDD518EB02085E417F1C55F187
:103880000005B6E74FF480154FF000074FF0000633
:103890004FF00008ADE7F0BC4FF0000001F1C0416F
:1038A00001F00041BDE8008111EA0C1F0CEA13157C
:1038B00000D00CE013EA0C1F00F025804FF0000050
:1038C000F0BC81EA030101F00041BDE80081F0BCD9
:1038D000BDE8004181EA030100F01CBAF0BCBDE87C
:1038E000004170B500F0C8F9097EFC3E00F007B851
:1038F00081EA03014FF0000001F00041704781EAC6
:10390000030100F007BAF0BCBDE800414FF0000031
:1039100021497047FFFDFBF9F7F5F4F2F0EEEDEB0E
:10392000E9E8E6E4E3E1E0DEDDDBDAD8D7D5D4D3BD
:10393000D1D0CFCDCCCBCAC8C7C6C5C4C2C1C0BF09
:10394000BEBDBCBBBAB9B8B7B6B5B4B3B2B1B0AF0F
:10395000AEADACABAAA9A8A8A7A6A5A4A3A3A2A1F3
:10396000A09F9F9E9D9C9C9B9A99999897979695AE
:1039700095949393929191908F8F8E8E8D8C8C8B4A
:103980008B8A8989888887878685858484838382D2
:10399000828181800000FF070000F87F4FEA410329
:1039A0004FEA5353A3F58063D3F11E03C8BFD3F18D
:1039B000210C0CDD4FF0004242EAC12242EA505293
:1039C00032FA03FC8CEAE17CACEBE1707047102B1F
:1039D000C4BF0020704703F5787CBCF1FF3F04D0E2
:1039E0006FF0004282EA2100704770B500F044F9A0
:1039F0004992248000207047F2E700004FEA1153FB
:103A0000A3F58063D3F11E03A8BFD3F1200C08DB1C
:103A10004FF0004242EAC12252EA505232FA03F019
:103A2000704709420BD4102BC4BF0020704703F528
:103A3000787CBCF1FF3F05D04FF0FF3070474FF06E
:103A40000000704770B500F017F900BF499224805C
:103A500000207047F0E710F0004248BF4042B0FA43
:103A600080F310FA03F10AD0C3F11D0303F580635C
:103A70004FEA415002EB035202EBD12170474FF065
:103A800000007047B0FA80F310FA03F10AD0C3F1D6
:103A90001D0303F580634FEA41504FEA035202EBE6
:103AA000D12170474FF000007047000051EA030C2D
:103AB00017D41CF5801F58BFBCF5801F00F106808D
:103AC000994218BF704708BF9042704707D711F559
:103AD000801F58BF13F5801F19D49942704789423F
:103AE00070471CF5801F08D5BCF5801FF7D58B42A9
:103AF00018BF704708BF824270474FF4001C1CEB90
:103B0000410F38BF1CEB430F01D28B42704770B599
:103B100000F0B2F8922449004FF000514FF080536A
:103B2000FFF7D8BDDFF848C170B51CEA111E1EBFF3
:103B30001CEA13159EEA0C0F95EA0C0F00F06F803B
:103B400081EA030423EA4C134EEAD47E21EA4C11A5
:103B500041F4801143F48013AE44A1FB024CA0FB5E
:103B60000365AEF17F7E361955EB0C05A1FB034CC6
:103B70004CF10003A0FB021C16EB0C06654153F14F
:103B80000003094218BF46F0010613F4007F0BD171
:103B90004FEA03314FEA0530340341EA155140EA58
:103BA00016506FF003020AE04FEAC3214FEAC52026
:103BB000F40241EA555140EA56506FF0020202EB1E
:103BC0002E4201EB025585EACE710AD05FEA440C21
:103BD00018BF24F0004450F1000041F1000120EA38
:103BE000D47040F2FE7C624500D270BDA84214BF82
:103BF0004FF080444FF04044002E08BF0024BEF137
:103C0000806FA8BFA1F1C041BDE8704080F2828002
:103C10004FF0000001F1C04101F0004170479EEA01
:103C20000C0F0CEA131518BF95EA0C0F06D04FF0D5
:103C3000000081EA030E0EF0004170BD00F01CF898
:103C40008900013E00F007B800F009B84FEA430CC4
:103C50005FEA5C5C08D081EA030100F05BB84FEAE0
:103C6000410C5FEA5C5CF6D14FF0000001497047FF
:103C70000000FF070000F87F0EF1020E2EF0030E89
:103C80005EF8046B364205D4012A43EB030515F5B3
:103C9000001F12D8012841EB010C1CF5001F0CD8A5
:103CA0000ED14FEAD17C15F5001F0CEB4C0C0CF13A
:103CB000020C08BF4CEBD37C04E04FF0080C01E091
:103CC0004FEAD37C0CEB4C0526FA05F606F0070606
:103CD000B6F1040C06D20EEB860CBDE870404CF039
:103CE000010C6047DFE80CF0090B02024FF00041C5
:103CF0004FF00000A1F5002170BD194610460128C3
:103D000051EB010418BFD4F5001484BF002001F06A
:103D1000004170BD0808A0F500114FEA310170475D
:103D200053EA010C17D41CF5801F58BFBCF5801F47
:103D300000F106808B4218BF704708BF824270476F
:103D400007D713F5801F58BF11F5801F19D48B4278
:103D500070479B4270471CF5801F08D5BCF5801F3B
:103D6000F7D5994218BF704708BF904270474FF48B
:103D7000001C1CEB430F38BF1CEB410F01D29942D2
:103D800070470FB40CBC03BCFFF7C1BE91EA030F30
:103D900010B581F000413FF5FDAB83F0004300F02A
:103DA00009B8000010B591EA030F48BF83F0004343
:103DB0003FF5F0AB841A71EB030C07D212198CF0AB
:103DC000004C43EB0C03001B61EB0C01DFF8A4E19A
:103DD0004FEA1154A4EB135C1EEA430F18BF9EEA8E
:103DE000445F00F0B08023EA6E03524221EA04519E
:103DF000C3EB6E0338BF5B1EDCF1200E25D322FA25
:103E00000CFE10EB0E0043FA0CFE41EB0E01CCF160
:103E1000200E03FA0EFE10EB0E0051F10001CCF162
:103E2000200E29D412FA0EF201EB0451BDE8104025
:103E300058BF7047401C1CBFB2F1004F70470028AC
:103E40000CBF491C20F00100704712EB020E43EB3F
:103E5000030218BF4FF0010E4EEA4202ACF1200CF3
:103E6000DCF11E0E54D943FA0CFE10EB0E0051F19A
:103E7000FF31CCF11E0ED5D50EF1010E12FA0EFE59
:103E8000404141EB010101EB445C5FEA5C5C10D90D
:103E900010EBDE7001EB045138BFBEF1004FBDE8FE
:103EA000104018BF704700280CBF491C20F00100CB
:103EB000704730D24FEAD42C11F5001124F400647D
:103EC0001BD0B1FA81F20B3AA41AA41ED2F120033E
:103ED000914030FA03F31943904001EBCC71002C70
:103EE00001EB0451BDE81040A8BF704701F1C0418B
:103EF0004FF0000001F000417047B0FA80F310FA73
:103F000003F100D110BDE41A173C4805C90AE4E7E3
:103F100001EB045110BD491001EB0451BDE8104004
:103F20004FEA300002E04FF0000170474A0008BF3E
:103F30000042F8D0B2F5001F28BF704701F00041E1
:103F40004FF0000070479EEA445F07D011EA5E0F11
:103F5000BDE8104004BF002100207047BDE81040BC
:103F600070B5FFF789FE00BF40DFF63E83F00041E9
:103F7000104670470000E0FF43004FEAD30C4FEAC1
:103F80003C0C43401FBF40070CF1605113F0FE4F43
:103F900070471CF0006F03D100200CF00041704707
:103FA0000CF0004343EA507010B540EACC0000F03A
:103FB0003CFA00BF000000924FEA0001FFF7AABEE2
:103FC0004FF000414FF00000A1F5002170470000C4
:103FD00090EA010F48BF81F0004100F1AA82421A25
:103FE0003CBF801A89184FEAD0524FF07F4C1CEA30
:103FF000410FA2EBD15318BF9CEA026F00F03B8047
:104000004FF0004C4CEA00204CEA012121FA03FC5D
:1040100010EB0C0C1ED202F1FF325FEA1C2040EBC9
:10402000C25038BF70471CF07F0F4FEA400C18BFDA
:10403000BCF17F4F38BF7047C3F12003994008BFE0
:1040400020F00100BCF17F4F38BF7047A0F1C040A5
:1040500000F031BA4FEA3C00000A40EBC25028BFE2
:104060001CF0FF0F4FEA400CE6D018BFBCF17F4FA9
:1040700038BF7047EAE79CEA026F05D010EA5C0F90
:1040800008BF00F00040704710B500F0CEF900BF47
:1040900064FBBE3E401058BFC0F14040491058BFBD
:1040A000C1F140418142EFF3008070474FF47F0C33
:1040B0001CEAD0121EBF1CEAD11392EA0C0F93EA3D
:1040C0000C0F00F0858090EA010F48BF42F4807227
:1040D00040F4000C41F400002CF07F4120F07F40C0
:1040E00000B58142A2EB03020FF2081CACEB504E6C
:1040F000C0F100009EF800E04FEA4E0E00FB0EFCFF
:1041000038BF49004FEA2C1C02F5FA020CFB0EF3F3
:104110004FEACE1E4FEA112C4FEAC1210EEB635E2F
:1041200042EB22420EFB0CFC4FEA1C5300FB031136
:104130004FEA112C4FEA01310EFB0CFC4FEADC4C2C
:1041400000FB0C11C14228BF09184CEB03335DF88A
:1041500004EB10EB410143EBC250B2F57C0F38BFCA
:10416000704729D512F0F00F1CBF00F1C04000F0DD
:1041700000407047008182838485868788898B8C84
:104180008D8E8F919293959697999A9C9D9FA0A2C0
:10419000A3A5A7A8AAACAEB0B2B3B5B7B9BCBEC010
:1041A000C2C5C7C9CCCED1D4D7D9DCDFE2E6E9ECB1
:1041B000F0F3F7FAFE0000004FEA400C0CF1807CAF
:1041C000BCF17E4F28BF7047B0F1C04000F073B91A
:1041D00090EA010F0CEAD11348BF42F480726245A5
:1041E00038BF634507D213F47F0F16D080EA010071
:1041F00000F00040704710B500F017F9097EFC3E52
:1042000000F005B880EA010000F00040704780EA45
:10421000010000F0004000F04EB912F47F0F04BF1F
:104220000248704780EA010000F045B90000C07FF5
:1042300041000B0ED3F19E0208D950F400034FEA5F
:10424000032323FA02F048BF4042704710B500F044
:10425000ECF800BF49922480002070476FF00042C4
:1042600082EA20007047000010F0004148BF404241
:10427000B0FA80F310FA03F2C3F19D030BD051EAB8
:10428000C35101EB1220530638BF704700F1010003
:1042900008BF20F001007047B0FA80F310FA03F273
:1042A000C3F19D030AD0D90501EB1220530638BF94
:1042B000704700F1010008BF20F0010070470000C6
:1042C00050EA010C00F113801CF5000F58BFBCF53B
:1042D000000F01D48842704707D710F5000F58BF70
:1042E00011F5000F15D488427047894270471CF5BC
:1042F000000F04D5BCF5000FF7D5814270474FF091
:10430000807C1CEB400F38BF1CEB410F01D2814277
:10431000704710B500F089F8922449004FF0005022
:104320004FF08051FFF7B6BE4FF47F0C1CEAD0125D
:104330001EBF1CEAD11392EA0C0F93EA0C0F00F097
:10434000478090EA010F48BF42F480724FF0004C62
:104350004CEA00204CEA012102EB0302A0FB01130E
:10436000A2F50002002918BF43F001035B0028BF3B
:104370004FEA330342EB22425FEA132C4CEBC2506C
:104380002EBFBCEB436FB2F57C0F70474FEA036C56
:10439000BCF1004F08BF20F00100B2F57C0F38BF20
:1043A00070470BD582F0FF0212F5803FC8BF7047FF
:1043B00000F1C040D8BF00F00040704700F5000C8D
:1043C0005FEA4C0C48BF7047B0F1C04000F073B8D2
:1043D00090EA010F0CEAD11348BF42F480726245A3
:1043E00038BF634504D280EA010000F00040704706
:1043F00010B500F01AF800BF8900013E00F007B8C0
:1044000000F009B85FEA410C5FEA1C6C08D080EA52
:10441000010000F050B85FEA400C5FEA1C6CF6D176
:104420004FF00040A0F5800070470EF1020E2EF014
:10443000030E5EF8044B244204D44FEA4102B2F169
:104440007F4F11D84FEA4003B3F17F4F0CD80ED104
:104450004FEAD07CB2F17F4F0CEB4C0C0CF1020C0C
:1044600008BF4CEBD17C04E04FF0080C01E04FEAB0
:10447000D17C0CEB4C0324FA03F404F00704B4F1F0
:10448000040C06D20EEB840CBDE810404CF0010C7D
:104490006047DFE80CF0070802024FF00040A0F58B
:1044A000800010BD0846420018BFD2F1807288BF5C
:1044B00000F0004010BDFF2141EAD050C005704718
:1044C00051EA000C00F113801CF5000F58BFBCF539
:1044D000000F01D48142704707D711F5000F58BF74
:1044E00010F5000F15D481427047894270471CF5C2
:1044F000000F04D5BCF5000FF7D5884270474FF088
:10450000807C1CEB410F38BF1CEB400F01D288426E
:10451000704780EA010081EA000180EA0100FFF7AC
:10452000F8BE000090EA010F48BF81F000413FF55E
:1045300056AD421A04D882F00042A0EB02001144AA
:104540004FEAD0524FF07F4C1CEA410FA2EBD153FF
:1045500018BF9CEA026F4AD04FF0004C4CEA002092
:104560004CEA012121FA03FCB0EB0C0C0FD412F041
:10457000FE0F36D05FEA4C001DD5001240EBC25052
:1045800038BF70471CF03F0F18BF70470BE0A2F117
:1045900001025FEA1C2040EBC25038BF70471CF09C
:1045A0007F0F18BF7047C3F12003994014BF401E0E
:1045B00020F00100704780084FEA122308BF7047BF
:1045C000B0FA80FCA2EB0C02CCF1280C60FA0CF0E3
:1045D00093EA122F04BF00EBC25070474FEAC3703A
:1045E0007047130A5FEADC1008BF7047F6E79CEAE1
:1045F000026F04D010EA5C0F08BF0020704710B5AE
:10460000FFF713FF40DFF63E81F0004070470000E7
:104610000000000000008080808080008000A0A05A
:10462000A000000000005050F850F85050002078D2
:10463000A07028F02000C0C810204098180060909A
:10464000A040A8906800C04080000000000020400A
:10465000808080402000804020202040800000504A
:1046600020F820500000002020F82020000000004A
:10467000000000C04080000000F8000000000000C2
:10468000000000C0C00000081020408000007088BA
:1046900098A8C888700020602020202070007088B2
:1046A00008304080F80070880830088870001030AA
:1046B0005090F8101000F880F00808887000304022
:1046C00080F088887000F808102040404000708812
:1046D000887088887000708888780810600000C032
:1046E000C000C0C000000000C0C000C0408010205A
:1046F0004080402010000000F800F80000008040DA
:104700002010204080007088081020002000708851
:104710000868A8A87000708888F888888800F088E1
:1047200088F08888F0007088808080887000E09031
:1047300088888890E000F88080F08080F800F88019
:1047400080F08080800070888080988878008888D9
:1047500088F888888800E04040404040E0003810F9
:104760001010109060008890A0C0A09088008080F9
:1047700080808080F80088D8A8A8888888008888E9
:10478000C8A8988888007088888888887000F08811
:1047900088F08080800070888888A8906800F08801
:1047A00088F0A09088007088807008887000F820D9
:1047B00020202020200088888888888870008888A9
:1047C000888888502000888888A8A8A850008888F1
:1047D0005020508888008888502020202000F80829
:1047E00010204080F800E08080808080E000008021
:1047F000402010080000E02020202020E000205071
:10480000880000000000000000000000F800804068
:104810002000000000000000700878887800808088
:10482000B0C88888F00000006090809060000808A0
:1048300068988888780000007088F88070002050A0
:1048400040E0404040000000788888780870808010
:10485000B0C88888880040004040404040002000A8
:104860006020202020C0808090A0C0A09000C04088
:1048700040404040E0000000D0A8A8888800000028
:10488000B0D0909090000000609090906000000088
:10489000E09090E080800000709090701010000018
:1048A000506040404000000070806010E0004040D8
:1048B000E040404060000000909090907000000048
:1048C00088888850200000008888A8A85000000030
:1048D0008850205088000000909090701060000078
:1048E000F8102040F8002040408040402000202068
:1048F0002020202020008040402040408000689000
:10490000000000000000FCFCFCFCFCFCFC000020A3
:1049100070A820200000002020A8702000000010B7
:104920002078201000000020107810200000005097
:10493000487C08100000002040F84828000000E0F3
:10494000F0F8F0E000000010181C181000000080C3
:10495000402040803C00000000000000A800000053
:104960004D4F4445310000004D4F4445320000009A
:104970004669727374205061676500009C490008A5
:10498000000000203001000028010008044A00084F
:1049900030010020100C000084010008012C2506C5
:1049A000FFFFFF64C8C30304163F900145643B3D0D
:1049B0004132053ABA34213A6A084734436210401A
:1049C00040137049420813FD261B08600C2278141E
:1049D0002013281B08680C1A840C1A150C014A2D88
:1049E0000102030404080811060708090204065A14
:1049F0001A01154B0E467413C006432002ACA24A9E
:044A00000442293E05
:04000005080001C925
:00000001FF
